:040000006F00C06865
:1000040000000000000000006F0080086F00402026
:1000140000000000000000000000000000000000DC
:1000240000000000000000000000000000000000CC
:100034006F004006000000006F00E00500000000B3
:100044006F0080056F0060056F0040056F0020059C
:100054006F0000056F00E0046F00C00400000000A2
:100064006F0060046F0040046F0020046F00000400
:100074006F00E0036F00C003000000006F00600326
:100084006F0040036F0020036F0000036F00E00265
:1000940001A001A001A001A001A001A001A001A054
:1000A40001A001A001A001A001A001A001A001A044
:1000B40001A001A001A001A001A001A0B717004068
:1000C400930670052380D704130780FA2380E7047E
:1000D4000F10000003C6B7041376F60DA385C704FA
:1000E40023800704137605023DCA03C6A700118ABC
:1000F4001DE22380D7042380E7040F10000003C708
:10010400A700136747002385E7009307004B01000E
:100114000100FD17EDFFB71700409306700523801B
:10012400D704130780FA2380E7040F1000007D89A9
:100134002394A700010001000100010023800704AB
:100144002380D7042380E7040F10000037270040E2
:1001540093061005A303D7802380070482801376B7
:1001640005046DDE03C6A700418A1DE22380D7047F
:100174002380E7040F10000003C7A70013670701DB
:100184002385E7009307007D01000100FD17EDFFC3
:10019400B7170040930670052380D704130780FA2D
:1001A4002380E7040F1000007D8913650504239460
:1001B400A70001000100010001002380070423803F
:1001C400D7042380E7040F1000003727004093066C
:1001D400300549B74111814601468145114506C69E
:1001E4009D22B7170040130770052380E704130707
:1001F40080FA2380E7040F10000003C76704136725
:1002040017002383E70423800704B240410182805E
:1002140081460146814511453D22B71700409306AA
:1002240070052380D704130780FA2380E7040F1096
:1002340000007D562396C7022380D7042380E70459
:100244000F10000003C76704136717002383E70434
:100254002380070401A0BD473305F50201007D1585
:1002640075FD8280411122C426C206C6AA840144B7
:1002740063179400B24022449244410182800504F1
:100284001305803E4204C13F4180DDB7230304804F
:1002940095472303F4802302A4808280830764802B
:1002A400E3CE07FE23030480828083076480E3CEC9
:1002B40007FE03454480828083076480E3CE07FE03
:1002C4002302A4808280411126C44AC24EC006C6BD
:1002D4001377F50BAD47AA892E8995446306F70079
:1002E40019456D37653F8D444E854D37FD59FD14D5
:1002F40063983401B240A244124982494101828088
:10030400135509011375F50F453F2209CDB70111A6
:1003140026CC06CEB704080051371545853F713702
:1003240069372AC6A53F32459377150089EB1365D3
:1003340015001375F50FF240E24405618280FD1447
:10034400E9FC0145CDBF397126DC4ADA4ED852D6D4
:1003540056D45AD25ED062CEB7E700E006DE66CC51
:100364006ACA414783AB070422C6B8C37D5703ABAF
:10037400070083AA470023A0E71823A2E718B717AA
:100384000040130770052380E704130780FA2380D5
:10039400E70483C74704130C75FFB684E207137C94
:1003A400FC0F85462A8A2E89B28937240040E187CA
:1003B400015763FA86016308D500894613070002D2
:1003C4006313D5000157D98F93F7F70F371D0040FA
:1003D4002302FD0411472303E4801305F00F7D3548
:1003E400894C6D3D63EB8C11B70707003E99378745
:1003F40007007955637EE902B3079900636AF7023F
:10040400A947631CFA0689E48144493D26850DA069
:10041400CA8509454D3D850903C5F9FFFD14050944
:10042400613D81C49377F90FFDF7D53569FD7D559D
:10043400B7170040130770052380E704130780FAF9
:100444002380E70403C74704418B2382E704B7E70B
:1004540000E023A07705F25023A0671123A25711CF
:10046400E25432445259C259325AA25A125B825B44
:10047400724CE24C524D21618280A5476314FA0606
:1004840085699307F00FB3869700B374F900B694A7
:1004940093C7F7FFFD8C33F92701416A056C9387F5
:1004A400F9FFB3F7270199E363FC340193D94900B9
:1004B400C147E3E637FF89BF8567C169FD17E1B727
:1004C4001305800D638849011305000263848901C3
:1004D40013051008CA85C53B1D3D31D94E99B38417
:1004E4003441D9B7CA852D45F93BCE94E38E99F0B2
:1004F4008509653BA38FA9FED5BF9307FAFF93F740
:10050400F70F63ECFC0803475D04B7070800137793
:10051400070219E3B78707007955E37BF9F033073E
:100524009900E3E7E7F089476310FA048980554AA4
:10053400E38C04ECCA8509457933910903A7C9FF03
:1005440091472320E48003076480E34E07FE2303DE
:100554004481FD17EDFBFD14110981C49377F90F54
:10056400E9FF753371F5E1B58547E307FAF4CA8508
:100574002D45913B1389F4FFE38804E83D339377D9
:10058400390091EB8326048003A70900938749006F
:10059400E39DE6E6BE89CA84F1BFB5476316FA0057
:1005A4001305900BE5318DB5B1471305B00AE30B84
:1005B400FAFE9947631EFA02CA852D452933814400
:1005C4000D4C214ADD31639684018327048023A0E6
:1005D400F9008504E39844FF832704801317290155
:1005E400635507002392F90005B523A2F90029BD3C
:1005F4009D476319FA0281451305B004E931BD44EE
:1006040023A0090023A209007D59453193F7740002
:10061400CE9703C70700FD14398D2380A700E39606
:1006240024FFDDB3A1476312FA04D5318144630D7D
:1006340009008D479304C0036308F900930400057F
:1006440063049901930440041375C507E30E95DA16
:1006540019452D39A131054515392685B139094585
:10066400A1397531E31205DAD9B391476319FA0058
:100674001305600621391D311305900925B7E305DB
:080684000AD8F15459B300003B
:10068C00974100209381411D178100201301C196D1
:10069C00130540009735002093850516173600206A
:1006AC001306067E63FAC5008322050023A05500BD
:1006BC0011059105E3EAC5FE17250000130585F920
:1006CC0097450020938545931386818063FAC50076
:1006DC008322050023A0550011059105E3EAC5FE10
:1006EC0013858180938541856377B50023200500B0
:1006FC001105E36DB5FE9302800873A002309732AA
:10070C0000209382620F93E21200739052303717DD
:10071C000040930770052300F704930780FA230029
:10072C00F7040F1000003C47B70600FAE116F58FEE
:10073C00B70600069506D58F3CC79702000093823A
:10074C00C27A73901234730020303D432A8763734E
:10075C00C3029377F700BDEFADE5937606FF3D8AB4
:10076C00BA960CC34CC30CC74CC74107E36BD7FEFE
:10077C0011E28280B306C3408A0697020000969667
:10078C006780A6002307B700A306B7002306B700AF
:10079C00A305B7002305B700A304B7002304B700D3
:1007AC00A303B7002303B700A302B7002302B700CB
:1007BC00A301B7002301B700A300B7002300B700C3
:1007CC00828093F5F50F93968500D58D9396050150
:1007DC00D58D61B793962700970200009696868276
:1007EC00E78086FA9680C1171D8F3E96E374C3F896
:1007FC00A5B763F4D5066372E606011122CC330863
:10080C00C7403384B6403304040306CE26CA4AC814
:10081C004EC60DCC7D17FD164207C2064183C18220
:10082C00AA84BE89EF0080602685F5210149CE851A
:10083C00268505095921E31C24FF6244F2404249F4
:10084C00B2492685D24485450561A9A1F24062448E
:10085C00D2444249B249056182808280411126C24C
:10086C00AE849305600322C406C62A84612385479F
:10087C009305000A638FF400814581CC8947638816
:10088C00F4008D476395F4009305000619A09305B9
:10089C00000C22852244B24092444101D5A1411161
:1008AC0006C622C42A84A52981452285A52C1305B8
:1008BC00400697300020E780601A854522859D24EC
:1008CC001305400697300020E780401985452285A6
:1008DC00112E1305400697300020E780201885451F
:1008EC002285092B1305800797300020E78000171D
:1008FC00C545228501231305800797300020E7802A
:10090C00E0158345E4022285913F22859305A003DF
:10091C00D52122859545AD2122859305200BD9291A
:10092C002285B145B1292285B14599292285814578
:10093C008129228593053003A1212285930530035B
:10094C00812122859305700B752122859305200743
:10095C00052922859305B00B712922859305D003B7
:10096C00052122859305000C712122859305C00277
:10097C00012922859305200CB5292285854509215D
:10098C0022859305300CBD212285E545D52E228587
:10099C009305400C8521228593050002D5262285DE
:1009AC009305600C812922859545D92E22859305C6
:1009BC00000D892122859305400AD92622859305AD
:1009CC00100A7D2E22859305600D2D21228593051D
:1009DC00100A7D2622859305000E29292285930570
:1009EC00000D792E22859145612E2285B545492E23
:1009FC002285C54571262285CD455926228593052C
:100A0C00B002BD2E22859305F0039D2E2285930501
:100A1C004005BD2622859305C0049D262285E1450F
:100A2C0085262285B545A92E2285AD45912E228598
:100A3C00FD45B9262285930530029926228593051A
:100A4C00100E4D2E22859305000D1D2E22859145ED
:100A5C00052E2285B1452D262285C54515262285D4
:100A6C00CD45392E22859305C002192E228593057A
:100A7C00F003392622859305400419262285930517
:100A8C001005FD2C22859305F002DD2C2285FD45F9
:100A9C00C52C2285FD45ED24228593050002CD242D
:100AAC00228593053002E92C2285930510029926A4
:100ABC002285930590023D2E2244B24051454101BE
:100ACC0017330020670083F909C98347C50291C712
:100ADC008347D50293F7F70FDDBF82808567938735
:100AEC0007801CD5930700202317F50285470CC1FE
:100AFC002302C50014C5232205022308F5028280B7
:100B0C002306B50010C9230AD50018CD230EF50015
:100B1C002320050382802307B502A307C5022308FF
:100B2C00D5028280034745011C4DB716004011EFDA
:100B3C0099C503A7860AD98F23A4F60A828003A736
:100B4C00C60AD98F23A6F60A828099C503A7860CFC
:100B5C00D98F23A4F60C828003A7C60CD98F23A6A9
:100B6C00F60C82800347C5001C49B716004011EFF4
:100B7C0099C503A7860AD98F23A4F60A828003A7F6
:100B8C00C60AD98F23A6F60A828099C503A7860CBC
:100B9C00D98F23A4F60C828003A7C60CD98F23A669
:100BAC00F60C8280034745001C45B716004011EF38
:100BBC0099C503A7860AD98F23A4F60A828003A7B6
:100BCC00C60AD98F23A6F60A828099C503A7860C7C
:100BDC00D98F23A4F60C828003A7C60CD98F23A629
:100BEC00F60C82800347C5011C51B716004011EF6B
:100BFC0099C503A7860AD98F23A4F60A828003A776
:100C0C00C60AD98F23A6F60A828099C503A7860C3B
:100C1C00D98F23A4F60C828003A7C60CD98F23A6E8
:100C2C00F60C82803DC51C41011122CC06CE26CA91
:100C3C004AC84EC62A84B9C731C6A9C5B6893289F5
:100C4C00AE84593585452285313F81452285993FB2
:100C5C008347C40285C78547A306F402CA85268547
:100C6C00AD23638109022285853522856244F240D9
:100C7C00D2444249B249854505612DB7CA852685BE
:100C8C00FD29E5B7F2406244D2444249B2490561BC
:100C9C008280828015C1AE864C51411122C406C699
:100CAC002A8499C50356A50201C6AD3F231504023B
:100CBC00B240224441018280828029CD5C51411195
:100CCC0022C406C626C22A84A9C3835785020357A9
:100CDC00A502AE84FD176344F7008145653F0357B9
:100CEC00A4025C50930617002315D402BA9713D7AD
:100CFC0084002380E7000357A4025C50930617007E
:100D0C002315D402BA9723809700B2402244924410
:100D1C0041018280828019C123150502828025C180
:100D2C001C41B1CF5C51411122C406C62A8485C72F
:100D3C008D451D6523150402E124092993878180C3
:100D4C00944323060402A306040299EE01470A0702
:100D5C00BA9780C331A003558502752B48D069F929
:100D6C00B24022444101828018409442E380E6FE66
:100D7C00D44381C69442E315D7FE0547C9BF828090
:100D8C00011106CE22CCA307B10015C11C412A8447
:100D9C0099CF1D3B85452285F13381452285193537
:100DAC0085451305F100E12E85452285E53BF24092
:100DBC0062440561828015CD1C41011122CC06CE06
:100DCC002A8485C793978500A181DD8D2316B100F8
:100DDC00E53985452285793381452285E13389457D
:100DEC006800712E85452285753BF2406244056191
:100DFC0082808280011106CE22CCA307B1001DC1D6
:100E0C001C412A8485C38545713581452285993BD2
:100E1C0081452285413B85451305F1008D2685458D
:100E2C0022854933F24062440561828045CD01112F
:100E3C0026CAAE84854506CE22CC4AC82A844EC624
:100E4C0052C43A89368AB289B1359305A0022285FB
:100E5C0055378347E40293F7D70FADE38345F4028C
:100E6C002285A695C205C181B9378345F402D29576
:100E7C00C205C181228581379305B00222859D3F31
:100E8C008347E40293F7D70FA1E783450403228538
:100E9C00CE95C205C181053783450403CA95C205A9
:100EAC002285C181093F22856244F240D2444249E5
:100EBC00B249224A9305C00205612DBF8345040344
:100ECC002285A695C205C181FD358345040345B72E
:100EDC008345F4022285CE95C205C181E93D834547
:100EEC00F4026DBF828041111305800406C622C432
:100EFC0026C23714004097300020E780A09B832740
:100F0C00840A85451305001093E707202324F40A6F
:100F1C00C5288D4513050020E520E92683451404DA
:100F2C00171500001305056405649D2B17150000AB
:100F3C001305856469258D450565D9201305048045
:100F4C008D457D288D45130500405D288D45370561
:100F5C004000912A17150000130545628D25856602
:100F6C000146938501811385C1818D3E17150000C3
:100F7C001305C560A9251307048037084000854771
:100F8C0081461306004081451385C181953E8146FB
:100F9C00014681451385C181BD3E1385C181EFF0AA
:100FAC001F90171500001305A55D112D1384C18129
:100FBC00971400009384045D814713070014930673
:100FCC00000F014681452285EFF0BF8213054006D4
:100FDC0097300020E78080A89307007E1307001449
:100FEC009306000F014681452285EFF09F802685F0
:100FFC00F9231305400697300020E78020A66DBF2B
:10100C00914763EEB70217170000130727588A059C
:10101C00BA959C41BA978287B717004003A7470B34
:10102C001345F5FF698F23AAE70A03A7070B698FFE
:10103C0023A8E70A03A7070A798D23A0A70A8280B1
:10104C00B717004083A6470B1347F5FFF98E23AA69
:10105C00D70A83A6070B558D23A8A70A83A6070AD0
:10106C00758F23A0E70A8280B717004003A7470BB0
:10107C00498F23AAE70A03A7070B1345F5FF45BFC2
:10108C00B717004083A6470B1347F5FF758F23AAAC
:10109C00E70A03A7070A598D4DB7B717004003A7F6
:1010AC00470B498FEDB7914763EEB7021717000056
:1010BC001307074F8A05BA959C41BA978287B717D1
:1010CC00004003A7470D1345F5FF698F23AAE70CD2
:1010DC0003A7070D698F23A8E70C03A7070C798DCD
:1010EC0023A0A70C8280B717004083A6470D134797
:1010FC00F5FFF98E23AAD70C83A6070D558D23A8CF
:10110C00A70C83A6070C758F23A0E70C8280B7175A
:10111C00004003A7470D498F23AAE70C03A7070D2F
:10112C001345F5FF45BFB717004083A6470D13477E
:10113C00F5FF758F23AAE70C03A7070C598D4DB744
:10114C00B717004003A7470D498FEDB7B7470040CD
:10115C001147A381E70009472380E7001307000626
:10116C002380E70003C7170013670701A380E7007C
:10117C0003C717001377E70FA380E7008280B747F8
:10118C00004003C70700B74600401377F70E2380D3
:10119C00E7002396B70005472383E7001D4789E93D
:1011AC00374700408347770093F7F70FE5FF8280BE
:1011BC0003C67700E365C7FE03460500FD15C205AF
:1011CC002388C6000505C181D9BFB747004003C7B6
:1011DC0007001377F70E2380E700131705012E95F0
:1011EC0041834205239CE7004181239EA70023965F
:1011FC00B70025472383E70003C7170013671700C1
:10120C00A380E70003C76700058B6DDF03C71700DA
:10121C001377E70FA380E7008280B717004003D550
:10122C008700420541819377050491EB9377F50193
:10123C003755E801130505803345F5028280937715
:10124C00050C130700046397E7009377F501374506
:10125C009C1CCDB72165130505D08280814737379B
:10126C000040A14663C4C700328582800345B74065
:10127C00E38EA6FE3385F5000345050085072304A0
:10128C00A740CDB797370020938707DD9C43138782
:10129C0041853E95636EE500177700201307C7B5AF
:1012AC006368A700173700202328A7DA3E858280C1
:1012BC00FD57EDBF411122C406C62A84B93F294708
:1012CC00B307E502B2408D83B3D78702224495075A
:1012DC00B3D7E70237370040C207C1832316F74064
:1012EC0041018280716541111305052006C6D9376D
:1012FC00B7370040130770F82381E7400D47A381EF
:10130C00E74013070004A380E74005472387E74025
:10131C00B2404101828097370020938727D4AA8559
:10132C0088436DA0DDC183A7C5FF411122C406C649
:10133C0026C21384C5FF63D307003E94AA84EF0032
:10134C005015938741819C4381EF2322040023AAEB
:10135C0081802244B2402685924441016F00901353
:10136C00637EF40014403307D4006396E70098437F
:10137C00DC43369718C05CC0D9BFBA87D84319C3B1
:10138C00E37DE4FE94433386D700631F8600104050
:10139C00B29694C33386D700E31DC7FA1043584363
:1013AC00B29694C3D8C375B76375C400B1479CC0DB
:1013BC004DB71040B306C4006316D700144358430E
:1013CC00B29614C058C0C0C369B78280011126CA36
:1013DC0093843500F19806CE22CC4AC84EC6A1049F
:1013EC00B14763F3F404B14463E2B4042A89EF0017
:1013FC00500A9387418198433A8439E093878181DD
:10140C009C4391E781454A85D12223ACA180A685D6
:10141C004A856D2AFD5963193507B1472320F90018
:10142C004A85EF00300729A0E3D004FCB1471CC16A
:10143C000145F2406244D2444249B249056182807E
:10144C001C40858F63CF0702AD4663F6F6001CC0C7
:10145C003E9404C031A05C406313870223AAF18040
:10146C004A85EF0030031305B400930744006199DB
:10147C003307F5405DDF3A94898F1CC05DBF5CC3B8
:10148C00C5B72287404095BF130435007198E3021D
:10149C0085FCB305A4404A85152AE31C35FBB5BF72
:1014AC0039713EDA2ED232D436D63AD842DC46DE08
:1014BC0097370020938787BA22CC804326CA06CE62
:1014CC00AA8409C41C4C99E32285A12B0C4454100A
:1014DC002686228536C6EF00D002F2406244D24402
:1014EC0021618280011126CA4AC806CE22CC4EC682
:1014FC0052C4AA842E8901C51C4D91E31D239C4C1A
:10150C00804499E32685312B971700009387870C2D
:10151C00631CF402C0408357C400A18BB1C71C48A4
:10152C00A1C7FD59294A1C4483450900FD17B1E99F
:10153C001CC463DE07062286A94526856528FD574F
:10154C006308F502294535A0971700009387870A91
:10155C006314F4008044C1B7971700009387870584
:10156C00E31BF4FAC04445BFA2852685A12255D9B8
:10157C007D55F2406244D2444249B249224A056147
:10158C0082801CC4050963D70700184C63CBE700A5
:10159C00638945011C401387170018C02380B700CE
:1015AC0059B722862685B920E31F35F7D1B71C40E1
:1015BC001387170018C029472380E70061B79737B6
:1015CC0000209387A7A9AA85884329BF411122C46B
:1015DC002A842E8523A8018406C66D31FD57631716
:1015EC00F500938701859C4391C31CC0B2402244F3
:1015FC0041018280011122CC26CA4AC806CE4EC6B1
:10160C00AA842E89328401C51C4D91E319299717A0
:10161C000000938727FC6319F406C0401C4C1CC4C3
:10162C008357C400A18BC9C31C48BDCF1C480840BC
:10163C009379F90F1379F90F1D8D5C486346F5000A
:10164C00A28526857D2C2DE51C440505FD171CC4A3
:10165C001C401387170018C0238037015C4863892E
:10166C00A7008357C400858B81CBA9476316F9006B
:10167C00A285268579240DEDF24062444A85D24438
:10168C004249B2490561828097170000938787F61B
:10169C006314F400804459B797170000938787F1BF
:1016AC00E31EF4F6C0449DBFA285268521203DDDB6
:1016BC007D59D9B74111973700209387279A26C2B5
:1016CC00844322C44AC006C62A892E8489C49C4CF1
:1016DC0099E32685B926971700009387A7EF631C1B
:1016EC00F402C0400317C40093170701C18393F69B
:1016FC008700B5EE93F607019DEEA5472320F90070
:10170C00136707042316E4007D55B240224492442B
:10171C00024941018280971700009387A7ED63145B
:10172C00F4008044C1B7971700009387A7E8E31B28
:10173C00F4FAC04445BF918B8DC74C5889C99307A7
:10174C0044046384F5004A85F13E232A040283573E
:10175C00C4002322040093F7B7FD2316F4001C48A1
:10176C001CC08357C40093E787002316F4001C4861
:10177C0081EF8357C4001307002093F70728638574
:10178C00E700A2854A85B5218357C40013F71700DB
:10179C0005C75C4823240400B307F0401CCC1C484C
:1017AC000145A5F78317C40013F7070839DF93E742
:1017BC0007042316F40089BF898B014791E358482D
:1017CC0018C4F1BF83D7C500011122CC26CA06CE9E
:1017DC004AC84EC613F78700AA842E8479EFD841E5
:1017EC00634DE000B841634AE0000145F2406244B9
:1017FC00D2444249B2490561828058547DD703A92D
:10180C0004009396370123A0040063DE060670489B
:10181C008357C400918B99C75C401D8E5C5899C34B
:10182C003C401D8E5C540C50814626858297FD579A
:10183C000357C400631DF5009440F54763E9D706D0
:10184C00B70740208507B3D7D700858BADC31C489D
:10185C00232204001CC09317370163D80700FD57DF
:10186C006314F5009C4091E368C84C5823A02401F4
:10187C00ADDD930744046385F5002685EFF09FAA40
:10188C00232A04029DB70C500146854626850297F3
:10189C00FD572A86E31EF5F69C40BDDB7547638534
:1018AC00E70059476394E70423A024013DBF136765
:1018BC0007042316E4007D5515BF83A90501E386B3
:1018CC0009F203A905008D8B23A035013309394199
:1018DC00014791E3D84918C4E35920F11C540C502A
:1018EC00CA864E86268582976349A0008357C4001A
:1018FC0093E707042316F4007DBFAA993309A94086
:10190C00E1BF9C49B9CF011122CC06CE2A8411C566
:10191C001C4D81E72EC63122B245971700009387E4
:10192C0067CB639BF5004C408397C50095C7228518
:10193C006244F240056179B597170000938787CB15
:10194C006394F5000C44CDB797170000938787C6B6
:10195C00E39CF5FC4C44C9BFF2406244014505616F
:10196C00828001458280411122C406C62A84231636
:10197C00B5002317C50023200500232205002324CE
:10198C0005002322050623280500232A0500232C05
:10199C000500214681451305C505EFE01FDB9717B0
:1019AC0000009387079B5CD0971700009387679D77
:1019BC001CD4971700009387A7A15CD4971700003D
:1019CC00938767A400D01CD8B24022444101828086
:1019DC0097050000938525F391AA411126C21306A1
:1019EC0080069384F5FFB384C4024AC02E8922C4B6
:1019FC0006C693854407EFF07F9D2A8401CD2320F2
:101A0C00050023222501310508C41386840681456F
:101A1C00EFE0BFD32285B2402244924402494101F7
:101A2C0082801C4DBDE3411106C622C497070000FD
:101A3C00938747FA1CD597170000938767C19C437F
:101A4C002324050423260504232805046314F50028
:101A5C0085471CCD2A841D2848C02285052808C42A
:101A6C0022852D2048C4484001469145ED3D08444F
:101A7C000546A545CD3D48440946C945ED35854744
:101A8C001CCCB240224441018280828041119717C4
:101A9C0000009387E7BB26C284434AC006C69C4C11
:101AAC0022C42A8999E32685AD3F9384840480441B
:101ABC00DC40FD1763D607009C40B9CF8440C5BFFE
:101ACC000317C40039E7C1778507232204062320B6
:101ADC00040023220400232404005CC423280400F3
:101AEC00232A0400232C0400214681451305C40538
:101AFC00EFE0BFC5232A0402232C04022324040490
:101B0C00232604042285B240224492440249410116
:101B1C0082801304840671BF91454A857D3D88C03F
:101B2C0051FDB1472320F9000144E9BF797122D45A
:101B3C004AD052CC56CA5AC85EC606D626D24ECE0B
:101B4C002A8AAE8A130485040149054BFD5B09EC16
:101B5C00B25022544A8592540259F249624AD24AEE
:101B6C00424BB24B45618280044483294400FD19E9
:101B7C0063D409000040E1BF83D7C400637BFB0042
:101B8C008397E40063877701A6855285829A33692F
:101B9C00A90093848406E1BF1971A6DAAE848395FB
:101BAC00E500A2DC86DE328463DC050083D7C4004A
:101BBC0023A0060093F7070885E7930700401DA0B4
:101BCC00300836C6EF00B009B246E34105FE724755
:101BDC00BD67F98F7977BA9793B717009CC2F1BF9D
:101BEC00930700041CC0F6506654D6540145096195
:101BFC00828083D7C500011122CC06CE26CA4AC8E2
:101C0C00898B2E8489CF930774041CC01CC885470C
:101C1C005CC8F2406244D24442490561828074003F
:101C2C003000AA84953FA2452A892685EFF00FFA49
:101C3C0001ED8317C40013F7072061FFF19B93E7B5
:101C4C0027002316F400C1B797070000938787D8A5
:101C5C009CD48357C40008C008C893E70708231610
:101C6C00F400A2475CC8B24791CF8315E4002685E7
:101C7C00EF00900101C98357C400F19B93E7170053
:101C8C002316F4008357C4003369F900231624018A
:101C9C0049B7828082801C46FD171CC663DA070098
:101CAC00184E63C5E700A9476394F5006FF09F9445
:101CBC001C422E851387170018C22380B700828020
:101CCC00011122CC26CA4AC84EC652C406CE2A8955
:101CDC00AE893284B304D6007D5A63149400014556
:101CEC0009A8834504004E864A8575370504E3161A
:101CFC0045FFF2406244D2444249B249224A05614E
:101D0C008280357122CD26CB4AC94EC706CF52C52B
:101D1C0056C35AC1DEDEE2DCE6DAAA89AE84328929
:101D2C00368401C51C4D91E3ED399717000093875C
:101D3C00678A639BF40C83A4490083D7C400A18BEE
:101D4C00F5C79C48E5C793070002A304F10293076B
:101D5C00000302D22305F10222C6930B5002971AFC
:101D6C000000938A2A8B054C294B4A848347040034
:101D7C0099C36390770FB30C2441638D0C00E686F6
:101D8C004A86A6854E852D3FFD576306F51E925655
:101D9C00E69636D283470400638F071CFD57130960
:101DAC00140002C802CE3ECA02CCA309010482D49C
:101DBC008345090015465685152713041900C2479B
:101DCC0059E913F7070109C713070002A309E10436
:101DDC0013F7870009C71307B002A309E104834670
:101DEC0009001307A0026380E608F2474A84814683
:101DFC0025460347040093051400130707FD637978
:101E0C00E60AB5CA3ECE85A8970700009387877E61
:101E1C006395F40083A489000DB79707000093879E
:101E2C006779E39CF4F083A4C90001BFA6854E85B5
:101E3C00EFF05F8809D97D55FA406A44DA444A4983
:101E4C00BA492A4A9A4A0A4BF65B665CD65C0D6123
:101E5C008280050421BF330555413315AC00C98F71
:101E6C003EC82289B1B7324793064700184336C69D
:101E7C00634907023ACE034704009307E002631F4D
:101E8C00F704034714009307A002631BF702B24741
:101E9C000904138747009C433AC663C107023ECA34
:101EAC0035A83307E04093E727003ACE3EC8E1B7A8
:101EBC00B387670385462E84BA9725BFFD57C5B7F0
:101ECC00050402CA81468147254603470400930551
:101EDC001400130707FD6376E606F1F28345040050
:101EEC000D461705000013056573CD2B11CD970713
:101EFC0000009387A7721D8D93070004B397A7006A
:101F0C00424505045D8D2AC8834504001946170512
:101F1C0000001305E570130914002304B1027D2B96
:101F2C003DC197E7FFFF9387270D95E74247B247DF
:101F3C001377071009CF91073EC69257D2973ED21E
:101F4C002DB5B387670385462E84BA97BDBF9D0711
:101F5C00E19BA107D5B7780097060000938686D63B
:101F6C0026860C084E8597000000E7000000FD5700
:101F7C002A8AE314F5FC83D7C40093F70704E39C87
:101F8C0007EA125555BD780097060000938686D354
:101F9C0026860C084E85012AD9BF797156CA9C49F0
:101FAC00BA8A984522D426D24ECE52CC06D64AD0E6
:101FBC005AC85EC6AA892E84B284368A63D3E700D7
:101FCC00BA879CC00347340419C385079CC01C40C6
:101FDC0093F7070281C79C4089079CC00329040022
:101FEC0013796900631A0900130B9401FD5B5C44BF
:101FFC009840998F634CF9041C408346340493F742
:10200C000702B336D000A5EB13063404D2854E85F7
:10201C00829AFD576303F5041C4011469840998B36
:10202C00544481446397C700B384E64063D30400EF
:10203C0081441C4418486354F700998FBE9401499D
:10204C0069047D5B63982405014509A885465A8679
:10205C00D2854E85829A631E75017D55B2502254ED
:10206C0092540259F249624AD24A424BB24B4561F0
:10207C0082800509ADBF3307D40013060003A3010A
:10208C00C7040347540493871600A2978906A381BB
:10209C00E7049DBF85462286D2854E85829AE30E43
:1020AC0065FB050945B7797122D426D24AD04ECEAC
:1020BC0006D652CC56CA5AC8B68983C68501930730
:1020CC0090063289AA842E8413863504638DF60219
:1020DC0063E2D706930780056387F61863EDD70094
:1020EC006380062293073004638EF60A930A240455
:1020FC002301D404C9A0930730066385F60A93071D
:10210C004006E395F6FE1C40084393F6070893053A
:10211C004500C5C61C410CC363D807001307D00289
:10212C00B307F040A301E404970600009386C64F62
:10213C0029476DA8930700076383F61663E5D7025A
:10214C009307E006638AF6189307F006E390F6FA15
:10215C000C401C4313F80508138547006307080659
:10216C0008C39C438DA893075007E383F6FE93079F
:10217C008007638AF61293073007E399F6F61C433F
:10218C00D04181459386470014C383AA0700568526
:10219C00B12601C53305554148C05C401CC8A3019C
:1021AC00040471A81C43930A2404938647009C439F
:1021BC0014C32301F4048547D5B793F607041C41D7
:1021CC000CC3B9DAC207C18781BF93F5050408C3F4
:1021DC00C9D983D707001307F0066387E60E970665
:1021EC000000938666442947A30104044C400CC4A8
:1021FC0063C5050008406D9908C099E3B28A91CD7A
:10220C00B28AB3F5E702FD1AB69583C505002380A3
:10221C00BA00B3D5E70263FFE70AA147631EF700D4
:10222C001C40858B91CB58401C4863C7E700930733
:10223C000003A38FFAFEFD1A3306564110C84E87D1
:10224C00CA867000A2852685893B7D5A631E450B84
:10225C007D55B250225492540259F249624AD24AE4
:10226C00424B45618280A382D50497060000938679
:10227C00A63B0C40084313F805081C411105630DDF
:10228C00080208C313F7150001C793E505020CC03B
:10229C004147B9FB0C4093F5F5FD0CC0B1B79C411F
:1022AC0093E707029CC193078007A302F4049706E7
:1022BC0000009386A63875BF13F8050408C3E30322
:1022CC0008FCC207C1837DBF970600009386C63504
:1022DC00214719BFAE8735B794411C43CC4913F83D
:1022EC000608138547006306080008C39C438CC38B
:1022FC0001A808C393F606049C43F5DA2390B700B3
:10230C0023280400B28A25BF14485686CA85268520
:10231C008299E30F45F31C40898B8DE7B247484403
:10232C00E359F5F23E8535B785465686CA8526852E
:10233C008299E30F65F1050A5C443247998FE345B6
:10234C00FAFEE9BF014A930A94017D5BF5B741118E
:10235C0022C42E848395E50006C6712A63490500C4
:10236C007C48AA977CC8B2402244410182808357A2
:10237C00C4007D777D17F98F2316F400EDB783D752
:10238C00C500011122CC26CA4AC84EC606CE93F708
:10239C000710AA842E843289B68991C78395E500EB
:1023AC008946014631228357C4007D777D17F98F0A
:1023BC002316F4008315E4006244F240CE864A866C
:1023CC00B24942492685D24405613DA8411122C437
:1023DC002E848395E50006C6E128FD570357C400FB
:1023EC00631BF500FD77FD17F98F2316F400B2403F
:1023FC002244410182808567D98F2316F40068C876
:10240C00FDB78395E50005A8411122C42A842E85C9
:10241C00B285368623A8018406C6EFE03FE4FD575B
:10242C006317F500938701859C4391C31CC0B24090
:10243C00224441018280411122C42A842E8523A882
:10244C00018406C6F928FD576317F50093870185AB
:10245C009C4391C31CC0B240224441018280411173
:10246C0022C42A842E85B28523A8018406C6C120E5
:10247C00FD576317F500938701859C4391C31CC0DE
:10248C00B240224441018280411122C42A842E850B
:10249C0023A8018406C65520FD576317F5009387C2
:1024AC0001859C4391C31CC0B240224441018280EF
:1024BC00411122C42A842E85B285368623A8018434
:1024CC0006C65120FD576317F500938701859C4381
:1024DC0091C31CC0B24022444101828093F5F50F98
:1024EC002A966314C5000145828083470500E38D5D
:1024FC00B7FE0505FDB7411122C42A842E85B2858D
:10250C00368623A8018406C6A920FD576317F5005B
:10251C00938701859C4391C31CC0B2402244410166
:10252C0082809307800523A8F1847D5582809307D0
:10253C00800523A8F1847D5582809307800523A80C
:10254C00F184014582809307800523A8F1847D5591
:10255C0082809307800523A8F1847D55828000003A
:10256C00537461727420404368697049443D25304E
:10257C0032580A0031000000320000003300000025
:10258C007768696C6500000090EAFFFFB8EAFFFF0E
:10259C00E0EAFFFFF8EAFFFF12EBFFFF22EBFFFF81
:1025AC004AEBFFFF72EBFFFF8AEBFFFFA4EBFFFF91
:1025BC00000000000000000000000000000000000F
:1025CC0000000000000000000000000000000000FF
:1025DC0000000000000000000000000000000000EF
:1025EC0000000000000000000000000000000000DF
:1025FC0000000000000000000000000000000000CF
:10260C0000000000000000000000000000000000BE
:10261C00232D302B20000000686C4C00656667454C
:10262C004647000030313233343536373839414281
:10263C0043444546000000003031323334353637E0
:10264C003839616263646566000000000040002058
:10265C0000000000DC250000FC250000BC2500006B
:10266C00000000000000000000000000000000005E
:10267C00000000000000000000000000000000004E
:10268C00000000000000000000000000000000003E
:10269C00000000000000000000000000000000002E
:1026AC00000000000000000000000000000000001E
:0826BC00B440002000400020A2
:00000001FF
