:040000006F00502518
:1000040000000000000000009000002074050020A3
:10001400A9BDF9F5900000200000000000000000D8
:10002400900000209000002000000000000000006C
:10003400900000200000000090000020000000005C
:1000440090000020920000209000002090000020EA
:10005400900000209000002090000020000000008C
:1000640090000020900000209000002090000020CC
:1000740090000020900000209000002090000020BC
:1000840090000020900000209000002090000020AC
:1000940001A0B717004083D7C70993F707406386C9
:1000A400072A3171174500E0130505F84ADB22DF02
:1000B40026DD4ED952D756D55AD35ED162CF97207A
:1000C40000E0E780A0D18147130700149306000FD6
:1000D4000146814513858181971000E0E780E0ACFB
:1000E4001306000481458808971000E0E78060A1AA
:1000F400130540063923930500048808971000E08F
:10010400E780403D2A8963090522174500E013056D
:1001140065F2972000E0E780A0B70144974400E02F
:10012400938444F293170401C18363E9271D29458D
:10013400972000E0E78000BA29476379270D8346BA
:1001440001059307A00A6393F60C834631059307D0
:100154002002639DF60A8347610583457105834642
:10016400910513D447003304E402BD8B0346810593
:10017400174500E0130585ED3E94B7470F009387BC
:1001840007243304F40293D74500BD89B387E702FB
:10019400AE97896593850571B387B7023E9493D76B
:1001A4004600B387E702BD8AB69793564600B386E6
:1001B400E6023D8A3E9493074006B296B386F60261
:1001C4003694A285972000E0E78080AC9306803EB9
:1001D4003377D402174600E0130686E8930500023D
:1001E4002810B356D402972000E0E780A0C24167EC
:1001F4008148414881477D1734101306C003D14517
:1002040013858181971000E0E780001D41678148D4
:10021400414881477D17974600E0938666E51306BB
:100224000005D14513858181971000E0E780C01A4D
:100234001306800281450A85971000E0E780608CF0
:100244001306800281452810971000E0E780608B38
:1002540001448149014A930A8002174B00E0130BC1
:100264006BDE9D4B3D4C1C09A29783C607FCB385EE
:100274004A41330541015A8693041400972000E053
:10028400E78040B9C204C1809C080D0ABE940504ED
:1002940042044180636F2407416481484148814797
:1002A4001307F4FF8A8613064006D145138581811E
:1002B400971000E0E78040128148414881471307C6
:1002C400F4FF341013068007D145138581819710FC
:1002D40000E0E78060107A54E17737170040938795
:1002E4000740231EF708EA545A59CA593A5AAA5AD7
:1002F4001A5B8A5B7A4C2961730020309C08A297B0
:1003040083C5070026850504972000E0E780409810
:1003140011BDE3FA8BF4636F8C0083C604003C10B8
:10032400B3853A41338537015A86972000E0E78048
:1003340060AE8D098504A1BF174500E01305C5D340
:10034400972000E0E78080A979B7E177371700406C
:1003540093870740231EF70873002030B7F7070080
:100364000111944B13078008F337078093F787082C
:100374003EC20F100000B717004013087005238019
:100384000705930580FA2380B7040F10000003C605
:10039400B7041376F60DA385C70423800704124619
:1003A400732606800F1000001376050255CEF3362F
:1003B400078093F6860836C40F10000023800705D3
:1003C4002380B7040F100000B70614007D89558DF3
:1003D40088C7010001000100010023800704A24630
:1003E400F3A606800F100000733707801377870881
:1003F4003AC60F100000238007052380B7040F10AE
:1004040000000F1000003727004093061005A303D7
:10041400D78023800704B247F3A707800F1000009A
:1004240093078008F3B7078093F787083ECE0F1031
:100434000000B7170040130770052380E704130773
:1004440080FA2380E7040F10000003C7B704136782
:100454000708A385E70423800704F247F3A707806E
:100464000F100000056182801376050459C27336AB
:1004740007801376860832C80F1000002380070512
:100484002380B7040F100000370614001306060477
:100494007D89518D88C7010001000100010023807E
:1004A40007044246732606800F1000007337078046
:1004B400137787083ACA0F100000238007052380AA
:1004C400B7040F100000A54793F6F60F639EF600DD
:1004D400B727004013073005A383E780B717004010
:1004E40023800704D2470DBFB72700401307200518
:1004F400E5B773370780137787083ACC0F100000ED
:10050400238007052380B7040F1000009847136762
:10051400070C98C723800704E247FDBD01118146FB
:1005240001468145114506CE7D2A93078008F3B71D
:10053400078093F787083EC60F100000B7170040E6
:10054400130770052380E704130780FA2380E70468
:100554000F10000003C76704136717002383E70421
:1005640023800704B247F3A707800F100000F2406E
:100574000561828041118146014681451145A522CC
:1005840013078008F337078093F787083EC40F10DA
:100594000000B7170040130670052380C7049306B4
:1005A40080FA2380D7040F100000FD552396B7026C
:1005B40023800704A245F3A505800F1000007337BC
:1005C4000780137787083AC60F1000002380C704FA
:1005D4002380D7040F10000003C7670413671700B4
:1005E4002383E70423800704B247F3A707800F108F
:1005F400000001A0BD473305F50201007D1575FD1E
:100604008280411122C426C206C6AA84014463170B
:100614009400B240224492444101828005041305AF
:10062400803E4204C13F4180DDB723030480154767
:100634002303E48001002302A48082808307648072
:10064400E3CE07FE23030480828083076480E3CE25
:1006540007FE03454480828083076480E3CE07FE5F
:100664002302A4808280411126C44AC24EC006C619
:100674001377F50BAD47AA892E8995446306F700D5
:1006840019456537653F8D444E854537FD59FD1441
:1006940063983401B240A2441249824941018280E4
:1006A400135509011375F50F453F2209CDB7011103
:1006B40026CC06CEB704080051371545BD3771372F
:1006C40069372AC6A53F32459377150089EB136530
:1006D40015001375F50FF240E24405618280FD14A4
:1006E400E9FC0145CDBF397126DC4ADA4ED852D631
:1006F40056D45AD25ED006DE62CE66CCB7E700E0AE
:100704007D5783AA070022C603AA470023A0E7183F
:1007140023A2E718B7170040130770052380E704E6
:10072400130780FA2380E70483C74704930B75FFFC
:10073400B684E20793FBFB0F8546AA892E8B328988
:1007440037240040E187015763FA76016308D50036
:100754008946130700026313D5000157D98F93F715
:10076400F70FB71C00402382FC0411472303E480E5
:100774001305F00F5D3D094CD135636D7C11B70550
:100784000700DA9537870700795563F2E504B387E4
:100794009500636EF702370B0800A94733EB650138
:1007A4006399F90689E48144513D26850DA0DA85D3
:1007B4000945553D05090345F9FFFD14050B693D40
:1007C40081C49377FB0FFDF7DD3569FD7D55B717C0
:1007D4000040130770052380E704130780FA238081
:1007E400E70403C74704418B2382E704F250B7E7C9
:1007F40000E023A0571123A24711E2543244525976
:10080400C259325AA25A125B825B724CE24C216189
:100814008280A5476395F90685691309F00FB3062D
:100824009900B3742B01B6941349F9FFB37499007A
:10083400856B33796901416B9387F9FFB3F727011E
:1008440099E363FC340193D94900C147E3E637FFD8
:1008540099BF0569C1697D19D9B71305800D6388EE
:100864006901130500026384790113051008CA8520
:10087400DD3B353D21DD4E99B3843441D9B7DA856A
:100884002D45D533CA94E30099F205097D3BA30FA6
:10089400A9FED5BF9387F9FF93F7F70F6361FC0CAB
:1008A40083C71C0413073008631FF70437070800C5
:1008B400636BEB04B3079B00B706100063F5D70422
:1008C400334BEB0089476393F9068980D549E38C60
:1008D40004ECDA850945413B11090327C9FF914717
:1008E4002320E48003076480E34E07FE230334815E
:1008F400FD17EDFBFD14110B81C49377FB0FE9FF8A
:100904007D3371F5E1B5B717004003C75704B70746
:1009140008001377070219E3B78707007955E378CE
:10092400FBEA33079B00E3FFE7F855B58547E3820D
:10093400F9F2DA852D45053B9389F4FFE38504E656
:10094400293393F7390091EB8326048003270900A8
:1009540093074900E39AE6E43E89CE84F1BFB547A4
:100964006396F9001305900BC93135BDB1471305E2
:10097400B00AE38BF9FE99476391F904B7050800BF
:10098400B365BB002D45C53181448D4BA1497539F3
:1009940063967401832704802320F9008504E39877
:1009A40034FF8327048013172B0163550700231298
:1009B400F900D5BB2322F900FDB39D476399F902E1
:1009C40081451305B0044531BD4423200900232289
:1009D4000900FD599D3993F77400CA9703C70700AE
:1009E400FD14398D2380A700E39634FF6DBBA14726
:1009F4006392F9046D398144630D0B008D479304B0
:100A0400C0036308FB009304000563048B01930493
:100A140040041375C507E30895D8194539313939A8
:100A24000545213126850D3909453D314931E31C00
:100A340005D669BB91476399F90013056006F5363D
:100A4400F53E130590090DB7E38F09D4F154A9BB02
:100A5400971100209381C18517610020130141DAA9
:100A64001305400097F5FF1F93858559170600204D
:100A7400130606FE63FAC5008322050023A0550071
:100A840011059105E3EAC5FE173500001305056E4F
:100A9400970500209385C5FB1386818063FAC50002
:100AA4008322050023A0550011059105E3EAC5FE44
:100AB40013858180938501856377B5002320050024
:100AC4001105E36DB5FEFD42739002BC8D42739037
:100AD4004280930280087390023097F2FF1F938242
:100AE400225293E2320073905230971200009382A4
:100AF400A2A173901234730020303D432A8763739C
:100B0400C3029377F700BDEFADE5937606FF3D8A08
:100B1400BA960CC34CC30CC74CC74107E36BD7FE52
:100B240011E28280B306C3408A06970200009696BB
:100B34006780A6002307B700A306B7002306B70003
:100B4400A305B7002305B700A304B7002304B70027
:100B5400A303B7002303B700A302B7002302B7001F
:100B6400A301B7002301B700A300B7002300B70017
:100B7400828093F5F50F93968500D58D93960501A4
:100B8400D58D61B7939627009702000096968682CA
:100B9400E78086FA9680C1171D8F3E96E374C3F8EA
:100BA400A5B763F4D5066372E606011122CC3308B7
:100BB400C7403384B6403304040306CE26CA4AC869
:100BC4004EC60DCC7D17FD164207C2064183C18275
:100BD400AA84BE89EF0060602685C5290149CE85B7
:100BE400268505096921E31C24FF6244F240424939
:100BF400B2492685D24485450561B9A1F2406244D3
:100C0400D2444249B249056182808280411126C2A0
:100C1400AE849305600322C406C62A845123854703
:100C24009305000A638FF400814581CC894763886A
:100C3400F4008D476395F4009305000619A093050D
:100C4400000C22852244B24092444101F1A9411191
:100C540006C622C42A84B52981452285A52C1305FC
:100C6400400697000020E780C099854522859D2491
:100C74001305400697000020E780A098854522854B
:100C8400112E1305400697000020E78080978545C4
:100C9400228539231305800797000020E78060969A
:100CA400C5452285F5291305800797000020E780B4
:100CB40040958345E4022285913F22859305A00354
:100CC400C521228595458D2122859305200BC929AF
:100CD4002285B14591292285B145B92122858145D5
:100CE400A1212285930530038121228593053003B8
:100CF400252922859305700B6521228593052007FC
:100D0400252122859305B00B612922859305D00303
:100D1400212922859305000C612122859305C002B7
:100D2400212122859305200CA52922858545ED2EB8
:100D340022859305300CAD212285E545F5262285D3
:100D44009305400CB129228593050002F12E2285DA
:100D54009305600CB12122859545F92622859305DA
:100D6400000D3D2922859305400A7D2E2285930599
:100D7400100A5D2E22859305600D1D2122859305A1
:100D8400100A5D2622859305000E192922859305F4
:100D9400000D592E22859145412E2285B54569269F
:100DA4002285C54551262285CD45BD2E2285930534
:100DB400B0029D2E22859305F003BD26228593055E
:100DC40040059D2622859305C004B92E2285E14560
:100DD400A12E2285B545892E2285AD45B1262285D1
:100DE400FD4599262285930530023D2E22859305E3
:100DF400100E7D2622859305000D3D262285914502
:100E040025262285B1450D262285C545312E22850C
:100E1400CD45192E22859305C002392622859305D6
:100E2400F0031926228593054004FD2C22859305A1
:100E34001005DD2C22859305F002FD242285FD4555
:100E4400E5242285FD45CD24228593050002E92C65
:100E5400228593053002C92C228593051002892628
:100E64002285930590022D2E2244B2405145410122
:100E740017F3FF1F6700E37809C98347C50291C7C9
:100E84008347D50293F7F70FDDBF82808567938789
:100E940007801CD5930700202317F50285470CC152
:100EA4002302C50014C5232205022308F50282800B
:100EB4002306B50010C9230AD50018CD230EF5006A
:100EC4002320050382802307B502A307C502230854
:100ED400D5028280034745011C4DB716004011EF2F
:100EE40099C503A7860AD98F23A4F60A828003A78B
:100EF400C60AD98F23A6F60A828099C503A7860C51
:100F0400D98F23A4F60C828003A7C60CD98F23A6FD
:100F1400F60C82800347C5001C49B716004011EF48
:100F240099C503A7860AD98F23A4F60A828003A74A
:100F3400C60AD98F23A6F60A828099C503A7860C10
:100F4400D98F23A4F60C828003A7C60CD98F23A6BD
:100F5400F60C8280034745001C45B716004011EF8C
:100F640099C503A7860AD98F23A4F60A828003A70A
:100F7400C60AD98F23A6F60A828099C503A7860CD0
:100F8400D98F23A4F60C828003A7C60CD98F23A67D
:100F9400F60C82800347C5011C51B716004011EFBF
:100FA40099C503A7860AD98F23A4F60A828003A7CA
:100FB400C60AD98F23A6F60A828099C503A7860C90
:100FC400D98F23A4F60C828003A7C60CD98F23A63D
:100FD400F60C82802DC91C41011122CC06CE26CAF2
:100FE4004AC84EC62A84A9CB21CAB9C5B689328952
:100FF400AE84593585452285313F81452285993F07
:101004008347C4028DC78547A306F402CA85268593
:10101400EF00100F638209022285B93D22856244E4
:10102400F240D2444249B2498545056125B7CA8593
:101034002685EF00F00CDDB7F2406244D244424909
:10104400B24905618280828015C1AE864C5141113E
:1010540022C406C62A8499C50356A50201C69D3F2B
:1010640023150402B240224441018280828029CDAA
:101074005C51411122C406C626C22A84A9C38357DF
:1010840085020357A502AE84FD176344F70081452A
:10109400653F0357A4025C50930617002315D4023E
:1010A400BA9713D784002380E7000357A4025C5047
:1010B400930617002315D402BA9723809700B240F1
:1010C4002244924441018280828019C12315050281
:1010D400828031C91C41A1CB5C51411122C406C696
:1010E4002A849DC38D451D65231504026923EF00E1
:1010F400007E938781809C4323060402A306040296
:1011040091EF23A4818039A003558502EF00301F9D
:1011140048D069F9B24022444101828098431C407E
:10112400E31AF7FEF9BF8280011106CE22CCA30791
:10113400B1001DC11C412A8485C33D3B85452285E0
:10114400D13B81452285393585451305F100EF00F2
:10115400207B85452285FD3BF24062440561828007
:101164001DCD1C41011122CC06CE2A848DC7939734
:101174008500A181DD8D2316B100FD3985452285C9
:10118400513B81452285F93389456800EF0040775A
:1011940085452285C133F2406244056182808280A4
:1011A400011106CE22CCA307B10005C51C412A8437
:1011B4008DC38545513D81452285A93B81452285C5
:1011C400513B85451305F100EF0080738545228569
:1011D4005133F24062440561828045CD011126CA33
:1011E400AE84854506CE22CC4AC82A844EC652C453
:1011F4003A89368AB289893D9305A00222854D3702
:101204008347E40293F7D70FADE38345F4022285C5
:10121400A695C205C181A9378345F402D295C205BA
:10122400C1812285353F9305B0022285953F8347CE
:10123400E40293F7D70FA1E7834504032285CE95F3
:10124400C205C181313F83450403CA95C205228585
:10125400C181393722856244F240D2444249B249BD
:10126400224A9305C002056125BF834504032285F4
:10127400A695C205C181ED358345040345B7834571
:10128400F4022285CE95C205C181D93D8345F4027D
:101294006DBF82805D71A2C4A6C25ED662D4BE8BCD
:1012A40086C6CAC04EDE52DC56DA5AD866D26AD036
:1012B4006ECE3AC6C147AA843684468C6300F80AC7
:1012C400B1476303F80A194D97370000938747E93C
:1012D400130704FE1377F70F9306E00583C917007D
:1012E40003C9070063F4E600130400020114420476
:1012F40041803304A403130A7900C2094209130785
:10130400F6FF9386F5FF93D90901135909014A970A
:10131400CE96135A3A404207C20683AC4700418333
:101324009377FA0FC18226853EC2453D2685669491
:10133400693B814CA14D63EB3C092644B640064908
:10134400F259625AD25A425BB25B225C925C025DF1
:10135400F24D2685964485456161FDB1414D97372F
:101364000000938767DFADB7314D9737000093874F
:1013740027DEB9BFB306540183C70600139D3A00A4
:10138400420D3EC4135D0D01014B33066D0142064F
:101394004182637D2601A24733D66741058A1DC277
:1013A400B2452685E931050BE311BBFF850A924757
:1013B40093F6FA0FE3E0F6FC850CC20C93DC0C0107
:1013C400529495BFE3110CFEDE85E1BF814AC5B797
:1013D4005D71A2C4A6C2CAC04EDE52DC56DA5AD827
:1013E4005ED662D466D26AD06ECE86C6AA892E84B0
:1013F400328AB684BA8A3E8B4289C68B414CB14C40
:10140400173D0000034DDDD5973D000083CD5DD42D
:1014140017330000034353D483C6040085E2B64067
:10142400264496440649F259625AD25A425BB25B48
:10143400225C925C025DF24D61618280DA87DE8813
:101444004A8856875286A2854E851AC6A1353243EC
:101454009A8763068901EA8763139901EE873E94AC
:101464004204418085044DBF011122CC06CE26CA18
:101474004AC84EC652C4014415C58DC59564056A53
:101484002E89AA89938404E2130A8A38637C24018E
:1014940033858900F92B05C12A9442044180D28402
:1014A400E36624FF2285F2406244D2444249B249B1
:1014B400224A05618280FD14C204C18013054006DE
:1014C40097F0FF1FE7800013F1F0E9BF15C98DC93C
:1014D400411122C426C22A84AE84173500001305A4
:1014E400E5AFA54506C69523094597F0FF1FE7809C
:1014F400401122852244B240A68592444101ADB7F1
:101504000145828041111305800406C622C426C207
:101514003714004097F0FF1FE78040E48327840AD4
:1015240085451305001093E707202324F40AA1221C
:101534008D45130500208122512B83451404173552
:101544000000130565AA8564EF0000748327840CEA
:101554008545414593E707082324F40CC1228D45B2
:1015640013050008652A4D29096513050558AD2999
:101574008D45414509228D4537058000ED288D456F
:1015840013050002CD288D4537054000412AC14688
:1015940001469385C18013858181EFF03F8F370821
:1015A40040008547370780008546130600028145C1
:1015B40013858181EFF0DF8F8146014689451385CC
:1015C4008181EFF05F9013858181EFF04FE88147CF
:1015D400130700149306000F01468145138581818A
:1015E400EFF02FDC4167814841487D1797360000B2
:1015F4009386C6A051468147D14513858181C93B55
:10160400854521658D2889452165652A85450565BA
:101614009D20894505657522854513050040A1284F
:10162400894513050040712AB707020037E400E03A
:101634002320F410854513050040CD20894513056A
:1016440000400924854513850480C9281385048036
:101654008945CD2AB70704002320F410173500006C
:101664001305C59AEF0000771305007D97F0FF1F5F
:10167400E78020F9D5BF914763EEB7021737000022
:101684001307C7A08A05BA959C41BA978287B717F2
:10169400004003A7470B1345F5FF698F23AAE70A08
:1016A40003A7070B698F23A8E70A03A7070A798D05
:1016B40023A0A70A8280B717004083A6470B1347CD
:1016C400F5FFF98E23AAD70A83A6070B558D23A805
:1016D400A70A83A6070A758F23A0E70A8280B71793
:1016E400004003A7470B498F23AAE70A03A7070B68
:1016F4001345F5FF45BFB717004083A6470B1347B3
:10170400F5FF758F23AAE70A03A7070A598D4DB77A
:10171400B717004003A7470B498FEDB7914763EE16
:10172400B702173700001307A7978A05BA959C419B
:10173400BA978287B717004003A7470D1345F5FFF3
:10174400698F23AAE70C03A7070D698F23A8E70C69
:1017540003A7070C798D23A0A70C8280B71700403C
:1017640083A6470D1347F5FFF98E23AAD70C83A64A
:10177400070D558D23A8A70C83A6070C758F23A0EE
:10178400E70C8280B717004003A7470D498F23AAAF
:10179400E70C03A7070D1345F5FF45BFB717004036
:1017A40083A6470D1347F5FF758F23AAE70C03A7FC
:1017B400070C598D4DB7B717004003A7470D498F44
:1017C400EDB7931705010547C1836382E5048DC115
:1017D4000947638DE5040D476380E506371700402C
:1017E400231EF70883560709D58F2318F70882802C
:1017F400371700400356470993C6F7FFF18E231AA3
:10180400D7088326C70A558D2326A70AC1BF3717D1
:1018140000400356470993C6F7FFF18E231AD708F1
:101824008326870A558D2324A70A4DBF3717004006
:1018340083564709DD8EE1B73717004083564709C1
:10184400DD8EE9BF9357E50093F70730C98FC207D0
:101854000547C1836382E5048DC10947638DE504AF
:101864000D476380E50637170040231FF7088356AA
:101874002709D58F2319F7088280371700400356AC
:10188400670993C6F7FFF18E231BD7088326C70C7D
:10189400558D2326A70CC1BF37170040035667098F
:1018A40093C6F7FFF18E231BD7088326870C558D2B
:1018B4002324A70C4DBF3717004083566709DD8EDC
:1018C400E1B73717004083566709DD8EE9BFB74794
:1018D40000401147A381E70009472380E70013076D
:1018E40000062380E70003C7170013670701A380DE
:1018F400E70003C717001377E70FA380E700828090
:10190400B747004003C707001377F70E2380E700AB
:10191400131705012E9541834205239CE70041815D
:10192400239EA7002396B70025472383E70003C718
:10193400170013671700A380E70003C76700058B30
:101944006DDF03C717001377E70FA380E7008280DA
:10195400B71700408847420541819377050491EB0E
:101964009377F5013755E801130505803345F502F2
:1019740082809377050C130700046397E70093773D
:10198400F50137459C1CCDB72165130505D0828030
:10199400814737370040A14663C4C700328582803F
:1019A4000345B740E38EA6FE3385F50003450500E5
:1019B40085072304A740CDB797F7FF1F9387470FE9
:1019C4009C43138701853E95636EE50017570020FD
:1019D400130707C36368A70017F7FF1F232AA70C81
:1019E4003E858280FD57EDBF411122C406C62A847C
:1019F40085372947B307E502B2408D83B3D7870201
:101A040022449507B3D7E70237370040C207C183A2
:101A14002316F700410182807165411113050520E9
:101A240006C6D937B7370040130770F82381E7009B
:101A34000D47A381E70013070004A380E7000547CF
:101A44002387E700B24041018280B7370040214735
:101A5400B736004091E1828003C6B700E30CC7FEAD
:101A640005050346F5FFFD15C2052384C600C181A3
:101A7400D5B78147B736004003C7A60013960701C0
:101A840041821377F70F19E33285828003C68600FB
:101A94003307F50085072300C700F9BF411122C4AD
:101AA40006C62A8475352947B307E502B2408D83FB
:101AB400B3D7870222449507B3D7E70237370040EC
:101AC400C207C1832316F740410182807165411129
:101AD4001305052006C6D937B7370040130770F839
:101AE4002381E7400D47A381E74013070004A38047
:101AF400E74005472387E740B2404101828097F7DA
:101B0400FF1F938727FBAA8588436DA0DDC183A7A8
:101B1400C5FF411122C406C626C21384C5FF63D380
:101B240007003E94AA84EF00B01F938701819C4371
:101B340081EF2322040023A881802244B240268519
:101B4400924441016F00F01D637EF400144033079A
:101B5400D4006396E7009843DC43369718C05CC012
:101B6400D9BFBA87D84319C3E37DE4FE94433386CF
:101B7400D700631F86001040B29694C33386D70003
:101B8400E31DC7FA10435843B29694C3D8C375B73C
:101B94006375C400B1479CC04DB71040B306C40080
:101BA4006316D70014435843B29614C058C0C0C338
:101BB40069B78280011126CA93843500F19806CE54
:101BC40022CC4AC84EC6A104B14763F3F404B1441D
:101BD40063E2B4042A89EF00B01493870181984327
:101BE4003A8439E0938741819C4391E781454A8552
:101BF400CD2A23AAA180A6854A85E522FD59631929
:101C04003507B1472320F9004A85EF00901129A038
:101C1400E3D004FCB1471CC10145F2406244D24404
:101C24004249B249056182801C40858F63CF070217
:101C3400AD4663F6F6001CC03E9404C031A05C407F
:101C44006313870223A8F1804A85EF00900D1305E2
:101C5400B4009307440061993307F5405DDF3A947B
:101C6400898F1CC05DBF5CC3C5B72287404095BF48
:101C7400130435007198E30285FCB305A4404A853A
:101C84008D22E31C35FBB5BF39713EDA2ED232D436
:101C940036D63AD842DC46DE97F7FF1F938787E1B2
:101CA40022CC804326CA06CEAA8409C41C4C99E3DC
:101CB4002285FD2B0C4454102686228536C6EF005F
:101CC400F043F2406244D24421618280011197F7CB
:101CD400FF1F938727DE22CC804306CEAA8519C432
:101CE4001C4C89E72AC62285E123B245104422858B
:101CF4006244F24005616F106025011126CA4AC88A
:101D040006CE22CC4EC652C4AA842E8901C51C4DCF
:101D140091E3792B9C4C804499E32685512B97279A
:101D240000009387273B631CF402C0408357C40020
:101D3400A18BB1C71C48A1C7FD59294A1C4483453E
:101D44000900FD17B1E91CC463DE07062286A94514
:101D540026853D22FD576308F502294535A09727BE
:101D64000000938727396314F4008044C1B7972790
:101D7400000093872734E31BF4FAC04445BFA285CF
:101D840026857D2A55D97D55F2406244D244424984
:101D9400B249224A056182801CC4050963D7070041
:101DA400184C63CBE700638945011C401387170077
:101DB40018C02380B70059B722862685D120E31F97
:101DC40035F7D1B71C401387170018C02947238063
:101DD400E70061B797F7FF1F9387C7CDAA858843AC
:101DE40029BF411122C42A842E8523A6018406C654
:101DF400EFF09FBCFD576317F5009387C1849C43A4
:101E040091C31CC0B24022444101828035713ECB53
:101E1400A6DA36C73AC942CD46CF97F7FF1F938754
:101E240067C986DEA2DC844363DB05009307B00840
:101E34009CC07D55F6506654D6540D61828093073C
:101E44008020231AF1002AC42ACC814799C19387A0
:101E5400F5FF3EC83ECE7401FD572E8426852C0026
:101E6400231BF10036C2EF00C07AFD576355F5001D
:101E74009307B0089CC05DDCA247238007005DBFC8
:101E8400011122CC26CA4AC806CE4EC6AA842E897F
:101E9400328401C51C4D91E32129972700009387C3
:101EA40067236319F406C0401C4C1CC48357C40048
:101EB400A18BC9C31C48BDCF1C4808409379F90FB6
:101EC4001379F90F1D8D5C486346F500A2852685BC
:101ED400C1242DE51C440505FD171CC41C401387B3
:101EE400170018C0238037015C486389A700835713
:101EF400C400858B81CBA9476316F900A28526858A
:101F0400412C0DEDF24062444A85D2444249B24923
:101F140005618280972700009387C71D6314F4002E
:101F2400804459B7972700009387C718E31EF4F637
:101F3400C0449DBFA285268521203DDD7D59D9B7AA
:101F4400411197F7FF1F9387E7B626C2844322C443
:101F54004AC006C62A892E8489C49C4C99E32685E6
:101F6400812E972700009387E716631CF402C04074
:101F74000317C40093170701C18393F68700BDEECE
:101F840093F607019DEEA5472320F9001367070484
:101F94002316E4007D55B240224492440249410193
:101FA4008280972700009387E7146314F400804429
:101FB400C1B7972700009387E70FE31BF4FAC044E7
:101FC40045BF918B95C74C5891C9930744046385C9
:101FD400F5004A85EFF09FB3232A04028357C40017
:101FE4002322040093F7B7FD2316F4001C481CC0F9
:101FF4008357C40093E787002316F4001C4881EF3D
:102004008357C4001307002093F707286385E7006C
:10201400A2854A85B5218357C40013F7170005C765
:102024005C4823240400B307F0401CCC1C48014541
:10203400BDF38317C40013F7070831DF93E70704E0
:102044002316F40081BF898B014791E3584818C4D3
:10205400F1BF83D7C500011122CC26CA06CE4AC8D7
:102064004EC613F78700AA842E8479EFD841634DB6
:10207400E000B841634AE0000145F2406244D244C2
:102084004249B2490561828058547DD703A90400AE
:102094009396370123A0040063DE06067048835735
:1020A400C400918B99C75C401D8E5C5899C33C4019
:1020B4001D8E5C540C50814626858297FD5703572C
:1020C400C400631DF5009440F54763E9D706B707DC
:1020D40040208507B3D7D700858BADC31C48232286
:1020E40004001CC09317370163D80700FD5763141D
:1020F400F5009C4091E368C84C5823A02401ADDD51
:10210400930744046385F5002685EFF03FA0232A56
:1021140004029DB70C500146854626850297FD575B
:102124002A86E31EF5F69C40BDDB75476385E70010
:1021340059476394E70423A024013DBF13670704B0
:102144002316E4007D5515BF83A90501E38609F232
:1021540003A905008D8B23A03501330939410147BB
:1021640091E3D84918C4E35920F11C540C50CA8691
:102174004E86268582976349A0008357C40093E75F
:1021840007042316F4007DBFAA993309A940E1BFCF
:102194009C49B9CF011122CC06CE2A8411C51C4D0D
:1021A40081E72EC63122B24597270000938787F234
:1021B400639BF5004C408397C50095C72285624414
:1021C400F240056179B5972700009387A7F26394DD
:1021D400F5000C44CDB7972700009387A7EDE39C47
:1021E400F5FC4C44C9BFF24062440145056182805C
:1021F40001458280411122C406C62A842316B500F3
:102204002317C500232005002322050023240500ED
:102214002322050623280500232A0500232C050074
:10222400214681451305C505EFE03F8D9717000052
:10223400938767DA5CD0971700009387C7DC1CD4B8
:1022440097170000938707E15CD4971700009387E2
:10225400C7E300D01CD8B2402244410182809705D4
:102264000000938525F391AA411126C21306800626
:102274009384F5FFB384C4024AC02E8922C406C6DF
:1022840093854407EFF01F932A8401CD2320050092
:1022940023222501310508C4138684068145EFE015
:1022A400DF852285B2402244924402494101828062
:1022B4001C4DBDE3411106C622C497070000938755
:1022C40047FA1CD597270000938707EA9C432324E9
:1022D400050423260504232805046314F500854713
:1022E4001CCD2A841D2848C02285052808C42285BF
:1022F4002D2048C4484001469145ED3D084405461B
:10230400A545CD3D48440946C945ED3585471CCC16
:10231400B24022444101828082804111972700000B
:10232400938787E426C284434AC006C69C4C22C4D1
:102334002A8999E32685AD3F938484048044DC4054
:10234400FD1763D607009C40B9CF8440C5BF03176F
:10235400C40039E7C177850723220406232004003B
:1023640023220400232404005CC423280400232A19
:102374000400232C0400214681451305C405EFE025
:10238400CFF7232A0402232C040223240404232643
:1023940004042285B24022449244024941018280CD
:1023A4001304840671BF91454A857D3D88C051FD63
:1023B400B1472320F9000144E9BF797122D44AD0FE
:1023C40052CC56CA5AC85EC606D626D24ECE2A8AE1
:1023D400AE8A130485040149054BFD5B09ECB25038
:1023E40022544A8592540259F249624AD24A424BD3
:1023F400B24B45618280044483294400FD1963D4AF
:1024040009000040E1BF83D7C400637BFB008397CE
:10241400E40063877701A6855285829A3369A9000F
:1024240093848406E1BF1971A6DAAE848395E5002E
:10243400A2DC86DE328463DC050083D7C40023A0DB
:10244400060093F7070885E7930700401DA03008AE
:1024540036C6EF001049B246E34105FE7247BD6738
:10246400F98F7977BA9793B717009CC2F1BF930796
:1024740000041CC0F6506654D6540145096182809C
:1024840083D7C500011122CC06CE26CA4AC8898B3F
:102494002E8489CF930774041CC01CC885475CC86C
:1024A400F2406244D24442490561828074003000A3
:1024B400AA84953FA2452A892685EFF0AFEF01ED66
:1024C4008317C40013F7072061FFF19B93E72700EC
:1024D4002316F400C1B797070000938787D89CD4CC
:1024E4008357C40008C008C893E707082316F400FC
:1024F400A2475CC8B24791CF8315E4002685EF005C
:10250400F04001C98357C400F19B93E717002316D9
:10251400F4008357C4003369F9002316240149B732
:102524008280828001114AC803A9850022CC52C44A
:102534005AC006CE26CA4EC656C22E84328B368A5E
:1025440063EE260983D7C50013F7074851C7044033
:102554008C495848AA8AB389B4408D44B384E402B0
:102564000947B3C4E402138716004E9763F3E400EB
:10257400BA8493F70740D9C3A6855685EFF08FE355
:102584002A890DE5B14723A0FA008357C4007D557D
:1025940093E707042316F400F2406244D24442490C
:1025A400B249224A924A024B056182800C484E8607
:1025B400EF00B03C8357C40093F7F7B793E70708DD
:1025C4002316F4002328240144C84E99B3843441CB
:1025D4002320240104C4528963732A0152890840C8
:1025E4004A86DA85EF00D0441C440145B38727416D
:1025F4001CC41C403E992320240179BF268656859D
:10260400EF00B0472A895DFD0C485685EFF00FD0E6
:1026140095BF83D7C500717126D34AD14ECF06D753
:1026240022D552CD56CB5AC95EC762C566C393F74D
:102634000708AA892E89B284B9C39C49A9E39305E2
:10264400000436C6EFF00FD72320A9002328A900E1
:10265400B24615E1B14723A0F9007D55BA502A547A
:102664009A540A59FA496A4ADA4A4A4BBA4B2A4CEA
:102674009A4C4D61828093070004232AF900930742
:102684000002A30CF1029307000302DA230DF10206
:1026940036CE930B5002972A0000938AAAA7054CC2
:1026A400294B26848347040099C3639C7709B30CA0
:1026B4009440638D0C00E6862686CA854E859D353A
:1026C400FD576304F51AD256E69636DA83470400BA
:1026D400638D0718FD579304140002D002D63ED22E
:1026E40002D4A301010682DC83C504001546568585
:1026F400EF00102713841400825731E513F7070104
:1027040009C713070002A301E10613F7870009C7ED
:102714001307B002A301E10683C604001307A00255
:10272400638BE602B257268481462546034704009C
:1027340093051400130707FD6374E6068DC63ED6A1
:102744001DA0050485B7330555413315AC00C98F69
:102754003ED0A28451BF724793064700184336CE39
:10276400634907023AD6034704009307E002631F54
:10277400F704034714009307A002631BF702F24710
:102784000904138747009C433ACE63C107023ED233
:1027940035A83307E04093E727003AD63ED0E1B7A7
:1027A400B387670385462E84BA9749B7FD57C5B7E3
:1027B400050402D281468147254603470400930558
:1027C4001400130707FD6378E606F1F2834504005D
:1027D4000D461725000013056594EF00701811CD00
:1027E40097270000938787931D8D93070004B39761
:1027F400A700025505045D8D2AD0834504001946BF
:10280400172500001305C59193041400230CB1028D
:10281400EF00101525C597D7FFFF9387677E95E7CF
:102824000257F2471377071009CF91073ECED257CC
:10283400D2973EDABDB5B387670385462E84BA972F
:10284400ADBF9D07E19BA107D5B7780897060000A7
:10285400938686CD4A860C104E8597000000E700CB
:102864000000FD572A8AE314F5FC8357C9007D55FF
:1028740093F70704E39407DE5255CDB3780897061F
:102884000000938666CA4A860C104E852129D1BF62
:102894001C46FD171CC663DA0700184E63C5E70023
:1028A400A9476394F5006FF0AFDD1C422E851387B2
:1028B400170018C22380B7008280011122CC26CAD7
:1028C4004AC84EC652C406CE2A89AE893284B3049D
:1028D400D6007D5A63149400014509A88345040079
:1028E4004E864A8575370504E31645FFF240624477
:1028F400D2444249B249224A05618280357122CDCF
:1029040026CB4AC94EC706CF52C556C35AC1DEDECE
:10291400E2DCE6DAAA89AE843289368409C51C4D24
:1029240099E3EFF0FF98971700009387A77A639CC9
:10293400F40C83A4490083D7C400A18BFDC79C4831
:10294400EDC793070002A304F1029307000302D228
:102954002305F10222C6930B5002971A0000938AB2
:102964006A7B054C294B4A848347040099C36391CD
:10297400770FB30C2441638D0C00E6864A86A68546
:102984004E85253FFD576307F51E9256E69636D2CF
:10299400834704006380071EFD571309140002C80F
:1029A40002CE3ECA02CCA309010482D483450900A5
:1029B40015465685EF00C07A13041900C24759E939
:1029C40013F7070109C713070002A309E10413F76A
:1029D400870009C71307B002A309E104834609006D
:1029E4001307A0026380E608F2474A84814625461D
:1029F4000347040093051400130707FD6379E60AEF
:102A0400B5CA3ECE85A8971700009387A76E639535
:102A1400F40083A4890005B797170000938787699A
:102A2400E39BF4F083A4C90039B7A6854E85EFF083
:102A34002FD101D97D55FA406A44DA444A49BA494A
:102A44002A4A9A4A0A4BF65B665CD65C0D61828020
:102A5400050419BF330555413315AC00C98F3EC871
:102A64002289A9B7324793064700184336C66349FB
:102A740007023ACE034704009307E002631FF704FA
:102A8400034714009307A002631BF702B24709042B
:102A9400138747009C433AC663C107023ECA35A860
:102AA4003307E04093E727003ACE3EC8E1B7B38747
:102AB400670385462E84BA9725BFFD57C5B705041D
:102AC40002CA814681472546034704009305140042
:102AD400130707FD6376E606F1F2834504000D460D
:102AE4001715000013058563A52D11CD9717000058
:102AF4009387C7621D8D93070004B397A7004245CF
:102B040005045D8D2AC88345040019461715000085
:102B140013050561130914002304B10291253DC175
:102B240097D7FFFF9387C74D95E74247B24713777F
:102B3400071009CF91073EC69257D2973ED225B5CA
:102B4400B387670385462E84BA97BDBF9D07E19B73
:102B5400A107D5B7780097060000938646D6268647
:102B64000C084E8597000000E7000000FD572A8AF4
:102B7400E314F5FC83D7C40093F70704E39C07EA46
:102B8400125555BD780097060000938646D32686D5
:102B94000C084E85012AD9BF797156CA9C49BA8A54
:102BA400984522D426D24ECE52CC06D64AD05AC804
:102BB4005EC6AA892E84B284368A63D3E700BA87B4
:102BC4009CC00347340419C385079CC01C4093F779
:102BD400070281C79C4089079CC00329040013791C
:102BE4006900631A0900130B9401FD5B5C4498406F
:102BF400998F634CF9041C408346340493F707020D
:102C0400B336D000A5EB13063404D2854E85829AE0
:102C1400FD576303F5041C4011469840998B5444B6
:102C240081446397C700B384E64063D304008144BE
:102C34001C4418486354F700998FBE9401496904F1
:102C44007D5B63982405014509A885465A86D2858B
:102C54004E85829A631E75017D55B250225492545A
:102C64000259F249624AD24A424BB24B45618280D0
:102C74000509ADBF3307D40013060003A301C7043D
:102C84000347540493871600A2978906A381E70497
:102C94009DBF85462286D2854E85829AE30E65FBCA
:102CA400050945B7797122D426D24AD04ECE06D62C
:102CB40052CC56CA5AC8B68983C685019307900672
:102CC4003289AA842E8413863504638DF60263E266
:102CD400D706930780056387F61863EDD7006380F2
:102CE400062293073004638EF60A930A2404230110
:102CF400D404C9A0930730066385F60A93074006F7
:102D0400E395F6FE1C40084393F607089305450037
:102D1400C5C61C410CC363D807001307D002B30710
:102D2400F040A301E404971600009386E63F294788
:102D34006DA8930700076383F61663E5D70293072C
:102D4400E006638AF6189307F006E390F6FA0C405F
:102D54001C4313F80508138547006307080608C3D6
:102D64009C438DA893075007E383F6FE93078007DF
:102D7400638AF61293073007E399F6F61C43D041B1
:102D840081459386470014C383AA07005685C92E3C
:102D940001C53305554148C05C401CC8A301040467
:102DA40071A81C43930A2404938647009C4314C3CC
:102DB4002301F4048547D5B793F607041C410CC3DB
:102DC400B9DAC207C18781BF93F5050408C3C9D91D
:102DD40083D707001307F0066387E60E97160000F3
:102DE400938686342947A30104044C400CC463C56C
:102DF400050008406D9908C099E3B28A91CDB28A62
:102E0400B3F5E702FD1AB69583C505002380BA0021
:102E1400B3D5E70263FFE70AA147631EF7001C402E
:102E2400858B91CB58401C4863C7E7009307000388
:102E3400A38FFAFEFD1A3306564110C84E87CA8680
:102E44007000A2852685893B7D5A631E450B7D55FE
:102E5400B250225492540259F249624AD24A424B25
:102E640045618280A382D504971600009386C62B01
:102E74000C40084313F805081C411105630D0802B2
:102E840008C313F7150001C793E505020CC04147B9
:102E9400B9FB0C4093F5F5FD0CC0B1B79C4193E729
:102EA40007029CC193078007A302F404971600004D
:102EB4009386C62875BF13F8050408C3E30308FC0A
:102EC400C207C1837DBF971600009386E62521477C
:102ED40019BFAE8735B794411C43CC4913F8060893
:102EE400138547006306080008C39C438CC301A8EC
:102EF40008C393F606049C43F5DA2390B70023280D
:102F04000400B28A25BF14485686CA85268582994C
:102F1400E30F45F31C40898B8DE7B2474844E359DE
:102F2400F5F23E8535B785465686CA85268582994B
:102F3400E30F65F1050A5C443247998FE345FAFED5
:102F4400E9BF014A930A94017D5BF5B7011122CCD4
:102F540006CE2A8409C91C4D99E732C62EC4EFF067
:102F64002FB53246A245971700009387A71663161C
:102F7400F60250401C46FD171CC663D00704184EC9
:102F840063C7E70093F7F50F29476398E7022285A3
:102F94006244F24005616FE0BFEE9717000093872B
:102FA40067156314F6001044F1B797170000938770
:102FB4006710E311F6FC504475BF1C4213F5F50F7E
:102FC4001387170018C22380B700F24062440561DA
:102FD4008280411122C42E848395E50006C6CD2C3F
:102FE400634905007C48AA977CC8B2402244410149
:102FF40082808357C4007D777D17F98F2316F400F0
:10300400EDB783D7C500011122CC26CA4AC84EC6E3
:1030140006CE93F70710AA842E843289B68991C705
:103024008395E5008946014631228357C4007D77A4
:103034007D17F98F2316F4008315E4006244F240EF
:10304400CE864A86B24942492685D24405613DA8C6
:10305400411122C42E848395E50006C6E128FD575C
:103064000357C400631BF500FD77FD17F98F231682
:10307400F400B2402244410182808567D98F23162F
:10308400F40068C8FDB78395E50005A8411122C482
:103094002A842E85B285368623A6018406C6EFE0EF
:1030A4003F8FFD576317F5009387C1849C4391C3F9
:1030B4001CC0B240224441018280411122C42A84AE
:1030C4002E8523A6018406C6A124FD576317F500A7
:1030D4009387C1849C4391C31CC0B24022444101E4
:1030E4008280411122C42A842E85B28523A60184BC
:1030F40006C62D24FD576317F5009387C1849C43AE
:1031040091C31CC0B240224441018280411122C4B7
:103114002A842E8523A6018406C63924FD57631705
:10312400F5009387C1849C4391C31CC0B2402244E0
:1031340041018280411122C42A842E85B2853686BB
:1031440023A6018406C6FD22FD576317F500938765
:10315400C1849C4391C31CC0B2402244410182807B
:1031640093F5F50F2A966314C500014582808347C1
:103174000500E38DB7FE0505FDB7B3C7A5008D8B2C
:103184003307C50081E78D4763EEC700AA876370E4
:10319400E50A83C6050085078505A38FD7FEE3EA04
:1031A400E7FE828093763500AA8791CA83C605001C
:1031B40085078505A38FD7FE93F63700FDB7937671
:1031C400C7FF138606FE63F0C70683A3050083A228
:1031D400450083AF850003AFC50083AE050103AE90
:1031E400450103A3850183A8C5019385450223A056
:1031F400770003A8C5FF23A2570023A4F70123A641
:10320400E70123A8D70123AAC70123AC670023AE93
:1032140017019387470223AE07FF75B790419107C3
:10322400910523AEC7FEE3EBD7FEE3E4E7F6828025
:1032340063F3A504B386C500637FD5029345F6FF07
:103244008147FD176393F50082803387F6000348B6
:1032540007003387C7002A9723000701DDB73387A8
:10326400F500834607003307F50085072300D700E0
:10327400E317F6FE82808147E5BF81E5B2856FE002
:103284007F93011122CC06CE26CA4AC84EC6328488
:1032940001EEEFE0BF870149F24062444A85D2441F
:1032A4004249B24905618280AE84AA89812826896F
:1032B400E37485FEA2854E85EFE0DF8F2A8969DD00
:1032C400A68522865D3DA6854E85EFE03F84E9B75D
:1032D400411122C42A842E85B285368623A6018410
:1032E40006C6B928FD576317F5009387C1849C432C
:1032F40091C31CC0B24022444101828083A7C5FF10
:103304001385C7FF63D50700AA959C413E9582802B
:103314009307800523A6F1847D5582809307800559
:1033240023A6F1847D5582809307800523A6F1842A
:10333400014582809307800523A6F1847D55828010
:103344009307800523A6F1847D5582800000000048
:1033540000000000000000000000FC00000000006D
:1033640002000000000C020C02000000000000003B
:1033740090D0BCD0BC900003000300001824FE448D
:103384008C000302070201001824D8B04C8000030B
:1033940000010201C038E438E00001020201020227
:1033A400080600000000000000000000000000F813
:1033B4000402000000010204000204F800000004FA
:1033C400020100009060F86090000000010000001D
:1033D4002020FC202000000001000000000000006C
:1033E400000008060000000020202020200000002B
:1033F40000000000000000000000000200000000C7
:103404000080601C0200040300000000F8040404AF
:10341400F8000102020201000008FC0000000002A2
:10342400030200001884442418000302020202006C
:1034340008042424D80001020202010040B088FCE0
:1034440080000000000302003C242424C400010284
:1034540002020100F824242CC0000102020201002F
:103464000C04E41C0400000003000000D8242424FD
:10347400D80001020202010038444444F800000369
:103484000202010000001000000000000200000021
:10349400000020000000000006000000002050880A
:1034A400040200000000010290909090900000003F
:1034B4000000000000020488502000020100000007
:1034C4001804C4241800000002000000F804E49466
:1034D400F80001020202020000E09CF080000203F6
:1034E4000000030204FC2424D800020302020100A9
:1034F400F80404040C0001020202010004FC0404A8
:10350400F80002030202010004FC24740C0002030C
:103514000202030004FC24740C00020302000000F5
:10352400F0080444CC4000010202010004FC202005
:10353400FC040203000003020404FC04040002026D
:1035440003020200000404FC040406040403000053
:1035540004FC24D00C0402030200030204FC040053
:103564000000020302020203FC3CC03CFC00030016
:103574000300030004FC30C4FC0402030200030043
:10358400F8040404F80001020202010004FC2424EB
:103594001800020302000000F8848404F800010209
:1035A4000207050004FC24649800020302000302DD
:1035B400182424448C000302020201000C04FC04BD
:1035C4000C0000020302000004FC0000FC040001E3
:1035D40002020100047C80E01C04000003000000DF
:1035E4001CE03CE01C00000300030000049C609C01
:1035F4000400020300030200041CE01C0400000297
:10360400030200000C84641C040002030202030091
:103614000000FE020200000007040400000E30C097
:103624000000000000010200000202FE000000048D
:103634000407000000040204000000000000000071
:103644000000000000000808080808080000020044
:1036540000000000000000000040A0A0C000000125
:103664000202030204FC2020C00000030202010045
:1036740000C02020600000010202020000C02024DB
:10368400FC0000010202030200C0A0A0C00000016F
:10369400020202000020F8242404000203020200B3
:1036A4000040A0A0602000070A0A0A0404FC2020AD
:1036B400C0000203020003020020E4000000000234
:1036C40003020000000020E40000080808070000CE
:1036D40004FC80E020200203020003020404FC0036
:1036E4000000020203020200E020E020C000030008
:1036F4000300030020E02020C000020302000302B4
:1037040000C02020C00000010202010020E02020AF
:10371400C000080F0A02010000C02020E0000001E0
:10372400020A0F0820E040202000020302000000EB
:103734000060A0A020000002020203000020F82084
:10374400000000000102020020E00020E00000016F
:103754000202030220E02080602000000301000038
:103764006080E0806000000300030000206080604F
:10377400200002030003020020E0208060200808EB
:10378400070100000020A0602000000203020200E4
:10379400000020DE0200000000070400000000FF1B
:1037A40000000000000F00000002DE200000000402
:1037B40007000000020102040402000000000000EF
:1037C40000000000000000000000000000000000F5
:1037D400000000080808080808080000181800007D
:1037E40000486C24120000000000000000000000EB
:1037F4000000002424247F1212127F1212120000EF
:103804000000081C2A2A0A0C1828282A2A1C08083E
:1038140000000022251515152A585454542200007E
:103824000000000C1212120A76252911916E000074
:103834000006060403000000000000000000000071
:103844000040201010080808080808101020400044
:1038540000020408081010101010100808040200D8
:103864000000000008086B1C1C6B08080000000026
:1038740000000000080808087F0808080800000085
:103884000000000000000000000000000606040321
:103894000000000000000000FE0000000000000026
:1038A4000000000000000000000000000606000008
:1038B4000000804040202010100808040402020088
:1038C40000000018244242424242424224180000AE
:1038D400000000080E08080808080808083E000050
:1038E4000000003C4242422020100804427E0000B6
:1038F4000000003C4242201820404042221C0000AC
:10390400000000203028242422227E202078000079
:103914000000007E0202021A26404042221C0000DF
:10392400000000382402021A2642424224180000F1
:103934000000007E22221010080808080808000071
:103944000000003C4242422418244242423C00000F
:10395400000000182442424264584040241C0000E5
:1039640000000000000018180000000018180000F3
:103974000000000000000008000000000008080427
:103984000000004020100804020408102040000039
:103994000000000000007F0000007F000000000025
:1039A4000000000204081020402010080402000057
:1039B4000000003C4242464020101000181800004D
:1039C4000000001C225A555555552D42221C00005A
:1039D4000000000808181414243C224242E70000A6
:1039E4000000001F2222221E22424242221F000007
:1039F4000000007C4242010101010142221C00003E
:103A04000000001F2242424242424242221F000062
:103A14000000003F4212121E12120242423F0000F6
:103A24000000003F4212121E12120202020700009E
:103A34000000003C2222010101712122221C00000D
:103A4400000000E7424242427E42424242E7000016
:103A54000000003E0808080808080808083E00009E
:103A64000000007C10101010101010101010110F16
:103A74000000007722120A0E0A1212222277000096
:103A8400000000070202020202020202427F00005A
:103A940000000077363636362A2A2A2A2A6B000096
:103AA400000000E346464A4A52525262624700000E
:103AB4000000001C2241414141414141221C0000BF
:103AC4000000003F424242423E020202020700005E
:103AD4000000001C2241414141414D53321C600011
:103AE4000000003F4242423E1212222242C700001E
:103AF4000000007C4242020418204042423E000082
:103B04000000007F4908080808080808081C00008D
:103B1400000000E74242424242424242423C00002C
:103B2400000000E74242222424141418080800006C
:103B34000000006B494949495555362222220000AC
:103B4400000000E7422424181818242442E7000047
:103B5400000000772222141408080808081C00003A
:103B64000000007E2120101008040442423F00009F
:103B740000780808080808080808080808087800F1
:103B8400000002020404080808101020202040400D
:103B9400001E1010101010101010101010101E0025
:103BA4000038440000000000000000000000000095
:103BB400000000000000000000000000000000FF02
:103BC40000060800000000000000000000000000E3
:103BD400000000000000003C4278444242FC000027
:103BE400000000030202021A26424242261A000082
:103BF40000000000000000384402020244380000C3
:103C040000000060404040784442424264D80000D2
:103C1400000000000000003C427E0202423C000022
:103C2400000000F08808087E08080808083E000024
:103C3400000000000000007C22221C023C42423CA6
:103C4400000000030202023A4642424242E70000F8
:103C54000000000C0C00000E08080808083E0000D4
:103C64000000003030000038202020202020221EB8
:103C74000000000302020272120A161222770000E8
:103C84000000000E0808080808080808083E00009C
:103C9400000000000000007F9292929292B7000010
:103CA400000000000000003B4642424242E70000A0
:103CB400000000000000003C42424242423C00003E
:103CC400000000000000001B26424242221E0207A0
:103CD400000000000000007844424242447840E082
:103CE40000000000000000774C040404041F0000DE
:103CF400000000000000007C42023C40423E000004
:103D0400000000000008083E080808080830000009
:103D140000000000000000634242424262DC0000F6
:103D240000000000000000E74224241408080000FA
:103D340000000000000000EB494955552222000014
:103D4400000000000000007624181818246E0000FB
:103D540000000000000000E74224241418080807AB
:103D6400000000000000007E22100808447E0000CD
:103D740000C0202020202010202020202020C0004F
:103D8400101010101010101010101010101010102F
:103D940000060808080808100808080808080600AB
:103DA4000C32C2000000000000000000000000000F
:103DB4000000000000000000002F000000000700C9
:103DC400070000147F147F1400242A7F2A12006243
:103DD40064081323003649552250000005030000EF
:103DE40000001C224100000041221C000014083E77
:103DF40008140008083E0808000000A0600000083D
:103E04000808080800006060000000201008040290
:103E1400003E5149453E0000427F4000004261514E
:103E24004946002141454B31001814127F100027E8
:103E340045454539003C4A494930000171090503AB
:103E440000364949493600064949291E00003636DC
:103E5400000000005636000000081422410000143F
:103E6400141414140000412214080002015109061C
:103E740000324959513E007C1211127C007F49499D
:103E84004936003E41414122007F4141221C007FCE
:103E940049494941007F09090901003E4149497ADC
:103EA400007F0808087F0000417F41000020404156
:103EB4003F01007F08142241007F40404040007FC2
:103EC400020C027F007F0408107F003E4141413E06
:103ED400007F09090906003E4151215E007F09194E
:103EE40029460046494949310001017F0101003F4B
:103EF4004040403F001F2040201F003F4038403FCB
:103F0400006314081463000708700807006151492E
:103F1400454300007F41410000552A552A550000C1
:103F240041417F000004020102040040404040403F
:103F3400000001020400002054545478007F4844D7
:103F4400443800384444442000384444487F00380E
:103F54005454541800087E0901020018A4A4A47C37
:103F6400007F080404780000447D40000040808401
:103F74007D00007F102844000000417F4000007C49
:103F840004180478007C0804047800384444443855
:103F940000FC242424180018242418FC007C0804A1
:103FA400040800485454542000043F444020003C7A
:103FB4004040207C001C2040201C003C4030403C01
:103FC400004428102844001CA0A0A07C0044645491
:103FD4004C44141414141414AA0000220001000008
:103FE400230000005374617274204043686970496F
:103FF400443D253032580A006E6F772053543737CA
:104004003839763300000000E58FAFE4BBA5E68CB9
:1040140089E4B88BE68C89E994AEE4BA86000000A2
:104024006B6579E68C89E4B88B000000446973748D
:10403400616E6365207261773A2000002530325842
:104044002000000044697374616E63653A2025643E
:10405400206D6D0A00000000446973743A202564E1
:104064002E25303364206D005261773A0000000041
:10407400526561642064697374616E636520746958
:104084006D656F757400000006D6FFFF2ED6FFFF26
:1040940056D6FFFF6ED6FFFF88D6FFFF98D6FFFFE8
:1040A400C0D6FFFFE8D6FFFF00D7FFFF1AD7FFFFF8
:1040B40000000000000000000000000000000000FC
:1040C40000000000000000000000000000000000EC
:1040D40000000000000000000000000000000000DC
:1040E40000000000000000000000000000000000CC
:1040F40000000000000000000000000000000000BC
:1041040000000000000000000000000000000000AB
:10411400232D302B20000000686C4C006566674539
:10412400464700003031323334353637383941426E
:1041340043444546000000003031323334353637CD
:104144003839616263646566000000000C06000093
:104154005033000010080000C437000008060000B7
:08416400B43D0000500A0020E8
:10416C0000000000D4400000F4400000B440000007
:10417C000000000000000000000000000000000033
:10418C000000000000000000000000000000000023
:10419C000000000000000000000000000000000013
:1041AC000000000000000000000000000000000003
:1041BC0000000000000000000000000000000000F3
:0841CC00000B0020500A002046
:00000001FF
